:020000040000FA
:0400000023EF00F0FA
:100008005A82FACF01F0FBCF02F0F2AA0EEF00F00D
:1000180010EF00F01DEF00F0F2A415EF00F017EF5D
:1000280000F01DEF00F03CEC0EF01DEF00F01DEFAE
:1000380000F002C0FBFF01C0FAFF5A921100D8EF8E
:100048000DF0000E0001EE6FF2EC0EF0F28EF28C65
:10005800040E18EC0FF09C0E0001736FFF0E746F06
:1000680075EC0EF0270E0001736FFF0E746F75ECC0
:100078000EF0710E0001736FFF0E746F75EC0EF0C9
:10008800F00E0001736FFF0E746F75EC0EF04DEFFC
:1000980000F00CEC0FF00009D8B455EF00F057EF62
:1000A80000F04DEF00F08FEC0EF00001EF6F61EF04
:1000B80003F0AE0E736FFE0E746F75EC0EF0D10E7A
:1000C8000001736FFF0E746F75EC0EF0E90E0001FE
:1000D800736FFF0E746F75EC0EF0870E0001736F6F
:1000E800FF0E746F75EC0EF0590E0001736FFF0E62
:1000F800746F75EC0EF0610E0001736FFE0E746F75
:10010800FCC075F0766BFBC077F0786B75EC0EF081
:10011800CF0E0001736FFE0E746F000E766F400EE7
:10012800756F75EC0EF0AE0E0001736FFE0E746FF6
:1001380075EC0EF04DEF00F0EB0E0001736FFF0E43
:10014800746F75EC0EF04DEF00F0BC0E0001736F8C
:10015800FF0E746FEFC075F0766B75EC0EF0000E45
:100168000001F06F270EF065BCEF00F0BEEF00F065
:10017800C2EF00F0D2EF00F0D2EF00F0CF0E736FB5
:10018800FF0E746F75EC0EF00001F02B270EF06572
:10019800D0EF00F0D2EF00F0C2EF00F0FF004DEF1B
:1001A80000F0BC0E0001736FFF0E746FEFC075F0A6
:1001B800766B75EC0EF0000E0001F06F270EF065FF
:1001C800E8EF00F0EAEF00F0EEEF00F04DEF00F09E
:1001D8004DEF00F0CF0E736FFF0E746F75EC0EF0DD
:1001E8000001F02B270EF065FCEF00F0FEEF00F0A9
:1001F800EEEF00F04DEF00F04DEF00F004EF01F0EE
:10020800BC0E736FFF0E746FEFC075F0766B75ECF4
:100218000EF0540E0001EF19D8B415EF01F017EFE6
:1002280001F024EF01F0FA517F6F806B7F1F801F70
:100238007F4B802B7FC0E8F080C0E9F029EF01F008
:10024800FAC0E8F0E96B29EF01F0E851FC27540EF9
:10025800EF19D8B432EF01F034EF01F039EF01F0C3
:10026800FAC0EAF0EB6B46EF01F0FA517F6F806B52
:100278007F1F801F7F4B802B7FC0EAF080C0EBF090
:1002880046EF01F0EA51FB27EF0E736FFE0E746F15
:10029800FCC075F0766BFBC077F0786B75EC0EF0F0
:1002A8004DEF00F0BC0E0001736FFF0E746FEFC0CE
:1002B80075F0766B75EC0EF064EF01F064EF01F009
:1002C8000001FC51C45CD8B06CEF01F06EEF01F096
:1002D8007BEF01F0C450FB5DD8A075EF01F077EF1C
:1002E80001F064EF01F07BEF01F07BEF01F0000E0D
:1002F800F96F000EF06F3F0EF06585EF01F087EFA4
:1003080001F08FEF01F0B0EF01F0B0EF01F08FEFE7
:1003180001F08FEF01F0F951D8B495EF01F097EFA4
:1003280001F08FEF01F099EF01F0000EF96FF05135
:10033800010D880EF324D96E000EF420DA6EC4CFB6
:10034800DFFFF02B3F0EF065ACEF01F0AEEF01F0F0
:100358008FEF01F0B0EF01F0300E736FFE0E746F87
:10036800000E766F400E756F75EC0EF0000E0001F2
:10037800F06F3F0EF065C3EF01F0C5EF01F0C9EF74
:1003880001F03AEF02F03AEF02F0F0C07FF00F0E02
:100398007F17D8A4D2EF01F0D4EF01F0DDEF01F020
:1003A800E00E736FFF0E746FF0C075F0766B75EC2E
:1003B8000EF0F50E0001736FFF0E746FF051010D12
:1003C800880EF324D96E000EF420DA6EDF507F6FAA
:1003D8007F51756F766B75EC0EF03F0E0001F019CA
:1003E800D8B4F9EF01F0FBEF01F02FEF02F0F05174
:1003F800010D880EF324D96E000EF420DA6E810EFA
:10040800DF6009EF02F00BEF02F02FEF02F0F0517E
:100418007F6F806B010E7F27000E8023880E7F255B
:10042800D96E000E8021DA6E800EDF641EEF02F0B6
:1004380020EF02F02FEF02F0EE51010DC80EF32469
:10044800D96E000EF420DA6EF0C0DFFFEE2B2FEF2E
:1004580002F02FEF02F0F02B3F0EF06536EF02F0BE
:1004680038EF02F0C9EF01F03AEF02F0CE0E736FE9
:10047800FF0E746F75EC0EF0FD0E0001736FFD0E2C
:10048800746F75EC0EF0000E0001F06F63EF02F070
:10049800FA0E736FFF0E746FF051010DC80EF3243E
:1004A800D96E000EF420DA6EDF507F6F7F51756FC2
:1004B800766B75EC0EF00001F02B63EF02F0EE5155
:1004C800F05DD8A06AEF02F06CEF02F04CEF02F09A
:1004D8006EEF02F08C0E736FFE0E746FFF0EEE253A
:1004E800756F766BFF0E762375EC0EF0000E00012B
:1004F800ED6F000EEC6F000EF06FF7EF02F0C10E1B
:10050800736FFF0E746FF0517F6F806B010E7F2742
:10051800000E8023C80E7F25D96E000E8021DA6E6A
:10052800DF50816F8151756F766BF051010DC80EE8
:10053800F324D96E000EF420DA6EDF50826F8251F8
:10054800776F786BF051010DC80EF324D96E000E49
:10055800F420DA6EDF50836F846B831F841F834B14
:10056800842BF051856F866B010E8527000E86233C
:10057800C80E8525D96E000E8621DA6EDF50876F8A
:1005880087518325796F000E84217A6F75EC0EF000
:100598000001F051010DC80EF324D96E000EF420AD
:1005A800DA6EDF507F6F806B7F1F801F7F4B802B41
:1005B800F051816F826B010E8127000E8223C80ED5
:1005C8008125D96E000E8221DA6EDF50836F846B2D
:1005D8007F518327805184238351EC278451ED2355
:1005E800F02BF7EF02F0FF0E7F6FFF0E806FEE51DA
:1005F800816F826B7F51812780518223F051836FF5
:10060800846B8151835D8451800A856F8251800A91
:100618008559D8A012EF03F014EF03F083EF02F02E
:1006280016EF03F0ECC003F0EDC004F0000E066E08
:10063800C80E056EA7EC0EF003C009F004C00AF05E
:10064800FF0E0001EE250B6E0C6AFF0E0C22B3ECB8
:100658000CF009C0ECF00AC0EDF0400E0001736F19
:10066800FF0E746FECC075F0EDC076F075EC0EF00F
:100678000B0E0001736FFF0E746F000E0A6E010EF1
:10068800096EECC00BF0EDC00CF0B3EC0CF009C037
:1006980075F00AC076F075EC0EF04DEF00F0B00E74
:1006A8000001736FFF0E746FEFC075F0766B75EC19
:1006B8000EF04DEF00F04DEF00F00001EF517F6FAD
:1006C800806B8051000AD8B46CEF03F053EF03F04D
:1006D8007F513F0AD8B45DEF00F06B0AD8B404EF3D
:1006E80001F00E0AD8B4A9EF00F03C0AD8B456EFCE
:1006F80001F0090AD8B4A0EF00F01B0AD8B404EF3F
:1007080001F00E0AD8B4D5EF00F053EF03F04DEF27
:1007180000F04DEF00F023EF00F046C0D9FF47C0CE
:10072800DAFFDECFF6FFDDCFF7FFF86A0800F550F5
:10073800250AD8A4A2EF03F0A4EF03F090EF05F088
:1007480046C0D9FF47C0DAFFDE2A000EDD22000EC0
:10075800576E000E566E56C0F5F057C0F6F0000101
:10076800F369F46946C0D9FF47C0DAFFDECFF6FF68
:10077800DDCFF7FFF86A0800F5502A0AD8A4C7EFBA
:1007880003F0C9EF03F0F4EF03F046C0D9FF47C008
:10079800DAFFDE2A000EDD2248C0D9FF49C0DAFFA1
:1007A800DFCF4AF0020EDE26DFCF4BF0000EDD224F
:1007B8004AC0D9FF4BC0DAFFDECF56F0DDCF57F085
:1007C80057BEEBEF03F0E9EF03F057EF04F0F581C4
:1007D800566C571ED8B0572A57EF04F057EF04F05D
:1007E80046C0D9FF47C0DAFFDECF0AF0DDCF0BF0F5
:1007F80053EC08F00AC056F00BC057F00DEF04F0A8
:1008080046C0D9FF47C0DAFFDE2A000EDD220DEF11
:1008180004F0D00E4A6EFF0E4B6E46C0D9FF47C09B
:10082800DAFFDECFF6FFDDCFF7FFF86A0800F550F4
:100838004C6E4D6A4A504C264B504D224D500AE1A1
:100848000A0E4C5CD8A02BEF04F02EEF04F0010E3A
:100858002FEF04F0000E0001716F726B49EF04F086
:1008680046C0D9FF47C0DAFFDECFF6FFDDCFF7FF7E
:10087800F86A0800F550036E046A1EEC0EF003C017
:1008880071F004C072F049EF04F000017151721167
:10089800D8A451EF04F053EF04F004EF04F057EF3D
:1008A80004F057EF04F046C0D9FF47C0DAFFDECFA7
:1008B800F6FFDDCFF7FFF86A0800F550630AD8A401
:1008C80068EF04F06AEF04F093EF04F046C0D9FF34
:1008D80047C0DAFFDE2A000EDD2248C0D9FF49C032
:1008E800DAFFDFCF4AF0020EDE26DFCF4BF0000E34
:1008F800DD224AC0D9FF4BC0DAFFDF50706F44C019
:1009080020F045C021F070C022F02BEC0DF020C083
:1009180044F021C045F0B0EF05F0B0EF05F046C057
:10092800D9FF47C0DAFFDECFF6FFDDCFF7FFF86A61
:100938000800F550640AD8B4A4EF04F0A6EF04F058
:10094800BBEF04F046C0D9FF47C0DAFFDECFF6FFA1
:10095800DDCFF7FFF86A0800F550690AD8A4B7EFA9
:1009680004F0B9EF04F0FEEF04F0BBEF04F046C06A
:10097800D9FF47C0DAFFDE2A000EDD2248C0D9FFC2
:1009880049C0DAFFDFCF4AF0020EDE26DFCF4BF098
:10099800000EDD224AC0D9FF4BC0DAFFDECF60F07F
:1009A800DDCF61F00001000E61BFFF0E626F636F63
:1009B800646F656F666F676F44C020F045C021F0B3
:1009C80060C022F061C023F062C024F063C025F04B
:1009D80064C026F065C027F066C028F067C029F01B
:1009E800B1EC05F020C044F021C045F0B0EF05F0AF
:1009F800B0EF05F046C0D9FF47C0DAFFDECFF6FFFB
:100A0800DDCFF7FFF86A0800F550750AD8A40FEF94
:100A180005F011EF05F055EF05F046C0D9FF47C0C6
:100A2800DAFFDE2A000EDD2248C0D9FF49C0DAFF0E
:100A3800DFCF4AF0020EDE26DFCF4BF0000EDD22BC
:100A48004AC0D9FF4BC0DAFFDECF4CF0DDCF4DF006
:100A58004CC068F04DC069F000016A6B6B6B6C6B41
:100A68006D6B6E6B6F6B44C020F045C021F068C0A1
:100A780022F069C023F06AC024F06BC025F06CC076
:100A880026F06DC027F06EC028F06FC029F040EC4A
:100A980007F020C044F021C045F0B0EF05F0B0EFFA
:100AA80005F046C0D9FF47C0DAFFDECFF6FFDDCF3D
:100AB800F7FFF86A0800F550250AD8A466EF05F094
:100AC80068EF05F081EF05F046C0D9FF47C0DAFFAF
:100AD800DE2A000EDD22000E066E250E056E44C0CD
:100AE80007F045C008F05EEC0CF0000E456E010EF4
:100AF800446EB0EF05F0B0EF05F046C0D9FF47C02F
:100B0800DAFFDE2A000EDD22000E456E000E446E6E
:100B1800B0EF05F0B0EF05F046C0D9FF47C0DAFFE7
:100B2800DECFF6FFDDCFF7FFF86A0800F550056E57
:100B3800066A44C007F045C008F05EEC0CF046C0F9
:100B4800D9FF47C0DAFFDE2A000EDD22000E456E0F
:100B5800010E446EB0EF05F0120022C03AF023C037
:100B68003BF024C03CF025C03DF026C03EF027C035
:100B78003FF028C040F029C041F041BEC6EF05F063
:100B8800C9EF05F0010ECAEF05F0000E386E396A9C
:100B980038503910D8B4D3EF05F0D5EF05F0E7EFAA
:100BA80005F0411E401E3F1E3E1E3D1E3C1E3B1EC4
:100BB8003A6C000E3B223C223D223E223F2240223C
:100BC8004122E7EF05F00001F4BFEDEF05F0EFEF8C
:100BD80005F0F2EF05F0F593F2EF05F0F4BFFFEF43
:100BE80005F0F45106E1F305D8B0FDEF05F0FFEF8D
:100BF80005F005EF06F0000E356E010E346E09EFB4
:100C080006F0F3C034F0F4C035F056C036F057C0E3
:100C180037F038503910D8A414EF06F016EF06F064
:100C28001FEF06F0F5A51BEF06F01DEF06F024EF09
:100C380006F01FEF06F03606D8A0370624EF06F0B8
:100C4800000E436E1F0E426E000E4224D96E010E36
:100C58004320DA6E000EDF6EB0EF06F04206D8A031
:100C68004306000E4224D96E010E4320DA6E3AC0C4
:100C780003F03BC004F03CC005F03DC006F03EC0A8
:100C880007F03FC008F040C009F041C00AF00A0E62
:100C98000B6E000E0C6E000E0D6E000E0E6E000E2A
:100CA8000F6E000E106E000E116E000E126E39ECF3
:100CB8000AF003C02AF004C02BF005C02CF006C0CF
:100CC8002DF007C02EF008C02FF009C030F00AC080
:100CD80031F02AC015F02CC016F0FCEC0DF01550C0
:100CE800300FDF6E3406D8A035063606D8A0370692
:100CF8003AC003F03BC004F03CC005F03DC006F02C
:100D08003EC007F03FC008F040C009F041C00AF0FB
:100D18000A0E0B6E000E0C6E000E0D6E000E0E6E9F
:100D2800000E0F6E000E106E000E116E000E126E89
:100D380061EC09F003C03AF004C03BF005C03CF098
:100D480006C03DF007C03EF008C03FF009C040F0C3
:100D58000AC041F0B0EF06F043BEBBEF06F04350C7
:100D680008E14204D8A0BBEF06F0BDEF06F0F4EFAF
:100D780006F03A503B103C103D103E103F1040101A
:100D88004110D8A4CAEF06F0CCEF06F032EF06F017
:100D980035BED9EF06F0355006E13404D8B0D7EFA8
:100DA80006F0D9EF06F032EF06F037BEE4EF06F0B2
:100DB800375008E13604D8A0E4EF06F0E6EF06F075
:100DC800F4EF06F00001F5B3ECEF06F0EEEF06F0F5
:100DD80032EF06F0F4EF06F0F4EF06F0F4EF06F069
:100DE80038503910D8A4FBEF06F0FDEF06F007EFF6
:100DF80007F00001F5A503EF07F005EF07F029EF6D
:100E080007F007EF07F04206D8A04306385039101C
:100E1800D8A411EF07F013EF07F019EF07F0000E51
:100E2800336E2B0E326E1FEF07F0000E336E2D0E51
:100E3800326E1FEF07F0000E4224D96E010E4320D8
:100E4800DA6E32C0DFFF29EF07F020C015F021C0AD
:100E580016F0000E4224176E010E4320186E36C09D
:100E680019F037C01AF0F3EC0BF015C020F016C0DB
:100E780021F03FEF07F012000001F4BF46EF07F042
:100E880048EF07F04BEF07F0F5934BEF07F0F4BF8F
:100E980058EF07F0F45106E1F305D8B056EF07F024
:100EA80058EF07F05EEF07F0000E336E010E326E5A
:100EB80062EF07F0F3C032F0F4C033F056C034F0FC
:100EC80057C035F022C036F023C037F024C038F0C0
:100ED80025C039F026C03AF027C03BF028C03CF0C6
:100EE80029C03DF0000E3F6E1F0E3E6E000E3E24E0
:100EF800D96E010E3F20DA6E000EDF6EFCEF07F0B0
:100F08003E06D8A03F06000E3E24D96E010E3F20B3
:100F1800DA6E36C003F037C004F038C005F039C0C7
:100F280006F03AC007F03BC008F03CC009F03DC0ED
:100F38000AF00A0E0B6E000E0C6E000E0D6E000EFF
:100F48000E6E000E0F6E000E106E000E116E000E6B
:100F5800126E81EC0BF003C02AF004C02BF005C020
:100F68002CF006C02DF007C02EF008C02FF009C0E5
:100F780030F00AC031F02A50300FDF6E3206D8A0A8
:100F880033063406D8A0350636C003F037C004F05F
:100F980038C005F039C006F03AC007F03BC008F089
:100FA8003CC009F03DC00AF00A0E0B6E000E0C6E34
:100FB800000E0D6E000E0E6E000E0F6E000E106EFF
:100FC800000E116E000E126EFFEC0AF003C036F030
:100FD80004C037F005C038F006C039F007C03AF051
:100FE80008C03BF009C03CF00AC03DF0FCEF07F038
:100FF8003E503F10D8B403EF08F005EF08F03CEF7F
:1010080008F036503710381039103A103B103C10A1
:101018003D10D8A412EF08F014EF08F084EF07F0A1
:1010280033BE21EF08F0335006E13204D8B01FEF89
:1010380008F021EF08F084EF07F035BE2CEF08F038
:10104800355008E13404D8A02CEF08F02EEF08F052
:101058003CEF08F00001F5B334EF08F036EF08F084
:1010680084EF07F03CEF08F03CEF08F03CEF08F0A5
:1010780020C015F021C016F0000E3E24176E010E98
:101088003F20186E34C019F035C01AF0F3EC0BF09D
:1010980015C020F016C021F052EF08F01200000E23
:1010A800186E000E176E000E116E000E106E61EFB6
:1010B80008F00A4A0B2A61EF08F0010E166E0AC002
:1010C800F6FF0BC0F7FFF86A0800F550200AD8B4FD
:1010D80070EF08F072EF08F092EF08F0F70E0C6E60
:1010E800FF0E0D6E0AC0F6FF0BC0F7FFF86A080086
:1010F800F5500E6E0F6A0C500E260D500F220F5031
:1011080009E1050E0E5CD8A08CEF08F08EEF08F010
:1011180092EF08F0000E166E92EF08F016C012F06B
:10112800136AA8EF08F00AC0F6FF0BC0F7FFF86AC9
:101138000800F550036E046A5CEC0DF003C012F071
:1011480004C013F0A8EF08F012501310D8A4AFEFA2
:1011580008F0B1EF08F05DEF08F0BFEF08F0BFEF5F
:1011680008F0000E116E010E106EBBEF08F00A4A6F
:101178000B2A05EF09F00AC0F6FF0BC0F7FFF86A63
:101188000800F5500C6E0D6A0D50000AD8B4CFEF68
:1011980008F005EF09F00C502B0AD8B4BBEF08F0A3
:1011A800060AD8B4B5EF08F005EF09F005EF09F025
:1011B800D00E0C6EFF0E0D6E0AC0F6FF0BC0F7FFC7
:1011C800F86A0800F5500E6E0F6A0C500E260D5086
:1011D8000F220E1E0F1E0E4A0F2A17C003F018C04A
:1011E80004F0000E066E0A0E056EA7EC0EF00E5007
:1011F8000324176E0F500420186E0A4A0B2A05EFB5
:1012080009F0D00E0C6EFF0E0D6E0AC0F6FF0BC073
:10121800F7FFF86A0800F5500E6E0F6A0C500E269C
:101228000D500F220F500AE10A0E0E5CD8A01FEFD6
:1012380009F022EF09F0010E23EF09F0000E146EF9
:10124800156A38EF09F00AC0F6FF0BC0F7FFF86A15
:101258000800F550036E046A1EEC0EF003C014F08B
:1012680004C015F038EF09F014501510D8A43FEF5A
:1012780009F041EF09F0DCEF08F043EF09F01050F6
:101288001110D8A44AEF09F04CEF09F05AEF09F011
:1012980017C00CF018C00DF00C1E0D1E0C4A0D2ABC
:1012A8000CC00AF00DC00BF060EF09F017C00AF08F
:1012B80018C00BF060EF09F01200000E146E12BE99
:1012C8006AEF09F068EF09F07EEF09F0121E111EAF
:1012D800101E0F1E0E1E0D1E0C1E0B6C000E0C2277
:1012E8000D220E220F22102211221222010E146E3C
:1012F8007EEF09F00ABE85EF09F083EF09F099EF58
:1013080009F00A1E091E081E071E061E051E041ED9
:10131800036C000E04220522062207220822092255
:101328000A22010E141A99EF09F020EE15F0070EA3
:10133800DE6AE806FDE20B500C100D100E100F10BF
:10134800101011101210D8B4ACEF09F0AEEF09F07C
:101358000CEF0AF0010E136EBEEF09F0D8900B36B1
:101368000C360D360E360F36103611361236132A55
:10137800BEEF09F012AEC3EF09F0C5EF09F0B2EF06
:1013880009F0C9EF09F0C9EF09F0D89015361636FB
:101398001736183619361A361B361C360B50035CAE
:1013A8000C5004580D5005580E5006580F50075849
:1013B800105008581150095812500A58D8A0E7EF91
:1013C80009F0E9EF09F0FCEF09F00B50035E0C504F
:1013D800045A0D50055A0E50065A0F50075A10500D
:1013E800085A1150095A12500A5A1580FCEF09F090
:1013F800D8901232113210320F320E320D320C32B6
:101408000B32132EC9EF09F00CEF0AF00CEF0AF0BB
:101418001450D8B412EF0AF014EF0AF026EF0AF0CD
:101428001C1E1B1E1A1E191E181E171E161E156CB2
:10143800000E16221722182219221A221B221C22F9
:1014480026EF0AF015C003F016C004F017C005F027
:1014580018C006F019C007F01AC008F01BC009F040
:101468001CC00AF038EF0AF01200000E146E0ABE13
:1014780042EF0AF040EF0AF056EF0AF00A1E091E82
:10148800081E071E061E051E041E036C000E0422FD
:10149800052206220722082209220A22010E146EBA
:1014A80056EF0AF012BE5DEF0AF05BEF0AF06FEF3D
:1014B8000AF0121E111E101E0F1E0E1E0D1E0C1EEF
:1014C8000B6C000E0C220D220E220F22102211226C
:1014D80012226FEF0AF00B500C100D100E100F10A7
:1014E800101011101210D8B47CEF0AF07EEF0AF039
:1014F800D2EF0AF0010E136E8EEF0AF0D8900B3679
:101508000C360D360E360F36103611361236132AB3
:101518008EEF0AF012AE93EF0AF095EF0AF082EF21
:101528000AF099EF0AF099EF0AF00B50035C0C509F
:1015380004580D5005580E5006580F5007581050B3
:1015480008581150095812500A58D8A0AEEF0AF09E
:10155800B0EF0AF0C2EF0AF00B50035E0C50045AC9
:101568000D50055A0E50065A0F50075A1050085A77
:101578001150095A12500A5AC2EF0AF0D890123282
:10158800113210320F320E320D320C320B32132E52
:1015980099EF0AF0D2EF0AF0D2EF0AF01450D8B45B
:1015A800D8EF0AF0DAEF0AF0ECEF0AF00A1E091E8B
:1015B800081E071E061E051E041E036C000E0422CC
:1015C800052206220722082209220A22ECEF0AF045
:1015D80003C003F004C004F005C005F006C006F01F
:1015E80007C007F008C008F009C009F00AC00AF0EF
:1015F800FEEF0AF0120020EE13F0070EDE6AE8068E
:10160800FDE20B500C100D100E100F1010101110E1
:101618001210D8B412EF0BF014EF0BF070EF0BF0C0
:10162800010E1B6E24EF0BF0D8900B360C360D36DE
:101638000E360F361036113612361B2A24EF0BF0F1
:1016480012AE29EF0BF02BEF0BF018EF0BF02FEF8A
:101658000BF02FEF0BF0D8901336143615361636DC
:101668001736183619361A360B50035C0C500458C6
:101678000D5005580E5006580F500758105008586E
:101688001150095812500A58D8A04DEF0BF04FEFDF
:101698000BF062EF0BF00B50035E0C50045A0D5028
:1016A800055A0E50065A0F50075A1050085A115032
:1016B800095A12500A5A138062EF0BF0D89012326E
:1016C800113210320F320E320D320C320B321B2E09
:1016D8002FEF0BF070EF0BF013C003F014C004F001
:1016E80015C005F016C006F017C007F018C008F0BE
:1016F80019C009F01AC00AF012000B500C100D1096
:101708000E100F10101011101210D8B48EEF0BF02D
:1017180090EF0BF0E2EF0BF0010E136EA0EF0BF061
:10172800D8900B360C360D360E360F36103611366D
:101738001236132AA0EF0BF012AEA5EF0BF0A7EFAD
:101748000BF094EF0BF0ABEF0BF0ABEF0BF00B5093
:10175800035C0C5004580D5005580E5006580F5095
:101768000758105008581150095812500A58D8A054
:10177800C0EF0BF0C2EF0BF0D4EF0BF00B50035E91
:101788000C50045A0D50055A0E50065A0F50075A5D
:101798001050085A1150095A12500A5AD4EF0BF037
:1017A800D8901232113210320F320E320D320C3202
:1017B8000B32132EABEF0BF0E2EF0BF003C003F08C
:1017C80004C004F005C005F006C006F007C007F025
:1017D80008C008F009C009F00AC00AF012000001A8
:1017E800F5A1F9EF0BF0FBEF0BF007EF0CF017C0CA
:1017F8000EF018C00FF015C010F016C011F0B2ECC2
:101808000DF007EF0CF01ABE0CEF0CF00EEF0CF019
:1018180014EF0CF019C01EF01AC01FF018EF0CF0EE
:10182800000E1F6E000E1E6E000E1D6E000E1C6E4A
:101838002CEF0CF0000E066E200E056E15C007F09A
:1018480016C008F05EEC0CF01C4A1D2A2CEF0CF0B8
:101858001E501C5C1D50800A1B6E1F50800A1B58AE
:10186800D8A039EF0CF03BEF0CF01EEF0CF00001A4
:10187800F5B141EF0CF043EF0CF04FEF0CF017C04F
:101888000EF018C00FF015C010F016C011F0B2EC31
:101898000DF04FEF0CF017C003F018C004F089ECFE
:1018A8000DF01E500324156E1F500420166E5DEFB8
:1018B8000CF0120007500810D8B465EF0CF067EF71
:1018C8000CF072EF0CF007500810D8A46EEF0CF073
:1018D80070EF0CF077EF0CF072EF0CF005503AEC6B
:1018E8000FF0B2EF0CF020EE04F00750D9260850A4
:1018F800DA22DE50DE10D8B484EF0CF086EF0CF05C
:10190800A3EF0CF020EE04F00750D9260850DA2295
:1019180010EE02F00750E1260850E222DE50E65CA5
:10192800E650800A0D6EDE50800A0D58D8B09FEF41
:101938000CF0A1EF0CF0B2EF0CF0A3EF0CF020EEDE
:1019480002F00750D9260850DA22DE2A000EDD22DE
:10195800B2EF0CF0B2EF0CF0B2EF0CF01200000E88
:101968000E6E000E0D6E0B500C10D8B4BEEF0CF0BE
:10197800C0EF0CF0F2EF0CF0010E0F6ECAEF0CF096
:10198800D8900B360C360F2ACAEF0CF00CAECFEFFE
:101998000CF0D1EF0CF0C4EF0CF0D5EF0CF0D5EF54
:1019A8000CF0D8900D360E360B50095C0C500A58C6
:1019B800D8A0E1EF0CF0E3EF0CF0EAEF0CF00B50DD
:1019C800095E0C500A5A0D80EAEF0CF0D8900C32E0
:1019D8000B320F2ED5EF0CF0F2EF0CF00DC009F022
:1019E8000EC00AF0120050C054F051C055F0000E5D
:1019F8000001F26F000EF16F17EF0DF04EC044F0CA
:101A08004FC045F0540E466E000E476E52C048F067
:101A180053C049F091EC03F044500001F1274550C0
:101A2800F22317EF0DF054C0F6FF55C0F7FFF86A20
:101A38000800F5500009D8A424EF0DF026EF0DF0AA
:101A480002EF0DF0F1C04EF0F2C04FF01200565008
:101A58005710D8A432EF0DF034EF0DF03AEF0DF037
:101A680056C023F057C024F042EF0DF0FF0E562465
:101A7800236EFF0E5720246E42EF0DF022C000F1B6
:101A8800000E0101016F20C015F021C016F0000EF4
:101A9800176E010E186E23C019F024C01AF0F3EC6B
:101AA8000BF015C020F016C021F05BEF0DF012000E
:101AB800010E096E200E03180410D8B466EF0DF05D
:101AC80068EF0DF083EF0DF0F70E056EFF0E066E52
:101AD80003C007F004C008F0055007260650082286
:101AE800085009E1050E075CD8A07DEF0DF07FEFE7
:101AF8000DF083EF0DF0000E096E83EF0DF009C0B5
:101B080003F0046A88EF0DF0120003C007F004C068
:101B180008F093EF0DF0034A042A93EF0DF003C089
:101B2800D9FF04C0DAFFDF50D8A49DEF0DF09FEF76
:101B38000DF08FEF0DF0A1EF0DF007C005F008C014
:101B480006F0051E061E054A062A03500524036EE4
:101B580004500620046EB1EF0DF01200000E146E52
:101B6800000E136EC5EF0DF012C005F0066A10C026
:101B780007F011C008F05EEC0CF0134A142AC5EF08
:101B88000DF013500E24D96E14500F20DA6EDF506A
:101B9800126E1250D8A4D3EF0DF0D5EF0DF0B8EFB8
:101BA8000DF0D7EF0DF01200960EF66E1E0EF76EC2
:101BB800000EF86E0900F5CFFAF00900F5CFFBF03A
:101BC8000900F5CFFCF001EE00F0200EEE6AE80601
:101BD800FDE100EEF1F0090EEE6AE806FDE1596A52
:101BE800586A576A566A5A905A92000125EF00F0CF
:101BF80016BE09EF0EF0165006E11504D8B007EF2F
:101C08000EF009EF0EF017EF0EF015C017F016C022
:101C180018F0171E181E174A182A17C015F018C0F2
:101C280016F01DEF0EF015C015F016C016F01DEFDA
:101C38000EF01200D00E056EFF0E066E03C007F000
:101C480004C008F0055007260650082208500AE18B
:101C58000A0E075CD8A033EF0EF036EF0EF0010E37
:101C680037EF0EF0000E036E046A3BEF0EF0120021
:101C7800F2945950D76E58C0D6FF0001F751F811A9
:101C8800D8B449EF0EF04BEF0EF059EF0EF002D832
:101C980057EF0EF00500FA6EF751FD6EF851FE6E23
:101CA800FF6AFA50120059EF0EF01200D59CF30E9D
:101CB800D76E7F0ED66ED650D7CF05F0066A05C010
:101CC80006F0056A0510586E0650596EF294F28AAD
:101CD800FE0E036E1D0E046E3FEC0FF09F0ED56EC8
:101CE8001200750E00017D6F000E7E6F000E4E6EA5
:101CF800000E4F6E73C050F074C051F07D0E526EDE
:101D0800000E536EF7EC0CF04EC07BF04FC07CF029
:101D18008EEF0EF0120091EF0EF09EAA96EF0EF0E5
:101D280098EF0EF091EF0EF0ABA29DEF0EF09FEF43
:101D38000EF0A3EF0EF0AB98AB88A3EF0EF0AE5009
:101D4800A6EF0EF0120003500502F3CF07F0F4CF10
:101D580008F003500602F350082604500502F35019
:101D6800082607C003F008C004F0BBEF0EF012000D
:101D7800000E896E000E8A6E000E8B6E9268936854
:101D8800BD0E946E3C0E0F013A6F3F0E396F2F0E49
:101D9800386F000E616EF18E1200700ED36E040E55
:101DA800D26E400E9B6ED9EF0EF0D2AEDEEF0EF083
:101DB800E0EF0EF0D9EF0EF0E2EF0EF01200036E36
:101DC800E6EF0EF09EA8EBEF0EF0EDEF0EF0E6EF6B
:101DD8000EF0EFEF0EF003C0ADFF120049EC0FF06C
:101DE800BCEC0EF0D1EC0EF05AEC0EF02FEC0FF02C
:101DF80024EC0FF012008B82C282010E0001F96FF1
:101E080044EC0FF008EF0FF08B920BEF0FF012007D
:101E18009EBA11EF0FF014EF0FF0010E15EF0FF04F
:101E2800000E17EF0FF01200046E04C003F0034613
:101E38000346C2500318830B0318C26EC2801200F7
:101E4800080EB86E900EAB6E240EAC6E820EAF6E9E
:101E5800060EB06E1200110EC26E000EC16E260E76
:101E6800C06E000EC36E000EC46E1200046E0450E5
:101E7800E3EC0EF0120003C0F7F004C0F8F0120013
:101E88005950D76E58C0D6FF1200D09E1200057662
:011E98008ABF
:10FDFC000054686520736F756E642077617665209A
:10FE0C0063726F7373656420617420746865206617
:10FE1C006F6C6C6F77696E6720696E646963696576
:10FE2C00730D0A00546865206C617374202564207E
:10FE3C004144432073616D706C65732066726F6D05
:10FE4C0020746865206D6963726F70686F6E6520D1
:10FE5C006172653A00542F743A20496E6372656181
:10FE6C0073652F6465637265617365207468726570
:10FE7C0073686F6C64202564202D2025640D0A00A6
:10FE8C000D0A54686520736F756E64207761766512
:10FE9C002068616420257520706572696F64730D2C
:10FEAC000A002D2D2D2D2D2D2D2D2D2D2D2D2D2DC6
:10FEBC002D2D2D2D2D2D2D2D2D2D2D2D2D2D2D2D66
:10FECC000D0A00663A20676174686572202564200B
:10FEDC0073616D706C65732066726F6D2041444365
:10FEEC000D0A005468726573686F6C642069732026
:10FEFC006E6F773A202564202D2025640D0A006151
:10FF0C00766572616765206672657175656E637979
:10FF1C00203D20257520487A0D0A004D6963726FCB
:10FF2C0070686F6E65206578706572696D656E744A
:10FF3C00730D0A0061766572616765207065726980
:10FF4C006F64203D2025752075730D0A007A3A20C8
:10FF5C00436C65617220746865207465726D696E9E
:10FF6C00616C0D0A0044657627313820626F61722E
:10FF7C006420776972696E670D0A005A3A205265DF
:10FF8C007365742070726F636573736F720D0A0002
:10FF9C00696E4C6162203038207465726D696E61D7
:10FFAC006C0D0A00556E6B6E6F776E206B65792049
:10FFBC0025630D0A002575202D202575203D202553
:10FFCC0075200D0A003F3A2048656C70206D656EF7
:10FFDC00750D0A000D0A535B2532755D006F3A20D2
:10FFEC006B0D0A000D0A3E20002533752000257587
:03FFFC00200000E2
:020000040020DA
:08000000FFFFFFFFFFFFFFFF00
:020000040030CA
:0E000000FF281F3CFFBF85FF0FC00FE00F4021
:00000001FF
